{
  "_format": "hh-sol-artifact-1",
  "contractName": "keijiban",
  "sourceName": "contracts/keijiban.sol",
  "abi": [
    {
      "inputs": [],
      "stateMutability": "nonpayable",
      "type": "constructor"
    },
    {
      "anonymous": false,
      "inputs": [
        {
          "indexed": true,
          "internalType": "string",
          "name": "name",
          "type": "string"
        },
        {
          "indexed": false,
          "internalType": "string",
          "name": "content",
          "type": "string"
        },
        {
          "indexed": false,
          "internalType": "address",
          "name": "id",
          "type": "address"
        }
      ],
      "name": "CreatedPost",
      "type": "event"
    },
    {
      "inputs": [
        {
          "internalType": "string",
          "name": "_name",
          "type": "string"
        },
        {
          "internalType": "string",
          "name": "_content",
          "type": "string"
        }
      ],
      "name": "createPost",
      "outputs": [],
      "stateMutability": "nonpayable",
      "type": "function"
    },
    {
      "inputs": [],
      "name": "getPosts",
      "outputs": [
        {
          "components": [
            {
              "internalType": "string",
              "name": "name",
              "type": "string"
            },
            {
              "internalType": "string",
              "name": "content",
              "type": "string"
            },
            {
              "internalType": "address",
              "name": "id",
              "type": "address"
            }
          ],
          "internalType": "struct keijiban.Post[]",
          "name": "",
          "type": "tuple[]"
        }
      ],
      "stateMutability": "view",
      "type": "function"
    },
    {
      "inputs": [
        {
          "internalType": "uint256",
          "name": "",
          "type": "uint256"
        }
      ],
      "name": "posts",
      "outputs": [
        {
          "internalType": "string",
          "name": "name",
          "type": "string"
        },
        {
          "internalType": "string",
          "name": "content",
          "type": "string"
        },
        {
          "internalType": "address",
          "name": "id",
          "type": "address"
        }
      ],
      "stateMutability": "view",
      "type": "function"
    }
  ],
  "bytecode": "0x60806040523480156200001157600080fd5b50620000726040518060400160405280600981526020017fe7aea1e79086e4baba000000000000000000000000000000000000000000000081525060405180606001604052806021815260200162001402602191396200007860201b60201c565b6200066e565b6000339050600060405180606001604052808581526020018481526020018373ffffffffffffffffffffffffffffffffffffffff1681525090806001815401808255809150506001900390600052602060002090600302016000909190919091506000820151816000019081620000f0919062000424565b50602082015181600101908162000108919062000424565b5060408201518160020160006101000a81548173ffffffffffffffffffffffffffffffffffffffff021916908373ffffffffffffffffffffffffffffffffffffffff16021790555050508260405162000162919062000579565b60405180910390207ff54f5b6a8cb64d5e1ae8e0139cb7e443a3da846a44fbed5d6cc62cd9374dd87883836040516200019d9291906200063a565b60405180910390a2505050565b600081519050919050565b7f4e487b7100000000000000000000000000000000000000000000000000000000600052604160045260246000fd5b7f4e487b7100000000000000000000000000000000000000000000000000000000600052602260045260246000fd5b600060028204905060018216806200022c57607f821691505b602082108103620002425762000241620001e4565b5b50919050565b60008190508160005260206000209050919050565b60006020601f8301049050919050565b600082821b905092915050565b600060088302620002ac7fffffffffffffffffffffffffffffffffffffffffffffffffffffffffffffffff826200026d565b620002b886836200026d565b95508019841693508086168417925050509392505050565b6000819050919050565b6000819050919050565b600062000305620002ff620002f984620002d0565b620002da565b620002d0565b9050919050565b6000819050919050565b6200032183620002e4565b6200033962000330826200030c565b8484546200027a565b825550505050565b600090565b6200035062000341565b6200035d81848462000316565b505050565b5b8181101562000385576200037960008262000346565b60018101905062000363565b5050565b601f821115620003d4576200039e8162000248565b620003a9846200025d565b81016020851015620003b9578190505b620003d1620003c8856200025d565b83018262000362565b50505b505050565b600082821c905092915050565b6000620003f960001984600802620003d9565b1980831691505092915050565b6000620004148383620003e6565b9150826002028217905092915050565b6200042f82620001aa565b67ffffffffffffffff8111156200044b576200044a620001b5565b5b62000457825462000213565b6200046482828562000389565b600060209050601f8311600181146200049c576000841562000487578287015190505b62000493858262000406565b86555062000503565b601f198416620004ac8662000248565b60005b82811015620004d657848901518255600182019150602085019450602081019050620004af565b86831015620004f65784890151620004f2601f891682620003e6565b8355505b6001600288020188555050505b505050505050565b600081905092915050565b60005b838110156200053657808201518184015260208101905062000519565b60008484015250505050565b60006200054f82620001aa565b6200055b81856200050b565b93506200056d81856020860162000516565b80840191505092915050565b600062000587828462000542565b915081905092915050565b600082825260208201905092915050565b6000601f19601f8301169050919050565b6000620005c182620001aa565b620005cd818562000592565b9350620005df81856020860162000516565b620005ea81620005a3565b840191505092915050565b600073ffffffffffffffffffffffffffffffffffffffff82169050919050565b60006200062282620005f5565b9050919050565b620006348162000615565b82525050565b60006040820190508181036000830152620006568185620005b4565b905062000667602083018462000629565b9392505050565b610d84806200067e6000396000f3fe608060405234801561001057600080fd5b50600436106100415760003560e01c80630b1e7f8314610046578063392338f51461007857806341f3004a14610094575b600080fd5b610060600480360381019061005b9190610569565b6100b2565b60405161006f93929190610667565b60405180910390f35b610092600480360381019061008d91906107e1565b61021c565b005b61009c610346565b6040516100a991906109cb565b60405180910390f35b600081815481106100c257600080fd5b90600052602060002090600302016000915090508060000180546100e590610a1c565b80601f016020809104026020016040519081016040528092919081815260200182805461011190610a1c565b801561015e5780601f106101335761010080835404028352916020019161015e565b820191906000526020600020905b81548152906001019060200180831161014157829003601f168201915b50505050509080600101805461017390610a1c565b80601f016020809104026020016040519081016040528092919081815260200182805461019f90610a1c565b80156101ec5780601f106101c1576101008083540402835291602001916101ec565b820191906000526020600020905b8154815290600101906020018083116101cf57829003601f168201915b5050505050908060020160009054906101000a900473ffffffffffffffffffffffffffffffffffffffff16905083565b6000339050600060405180606001604052808581526020018481526020018373ffffffffffffffffffffffffffffffffffffffff16815250908060018154018082558091505060019003906000526020600020906003020160009091909190915060008201518160000190816102929190610bf9565b5060208201518160010190816102a89190610bf9565b5060408201518160020160006101000a81548173ffffffffffffffffffffffffffffffffffffffff021916908373ffffffffffffffffffffffffffffffffffffffff1602179055505050826040516103009190610d07565b60405180910390207ff54f5b6a8cb64d5e1ae8e0139cb7e443a3da846a44fbed5d6cc62cd9374dd8788383604051610339929190610d1e565b60405180910390a2505050565b60606000805480602002602001604051908101604052809291908181526020016000905b82821015610516578382906000526020600020906003020160405180606001604052908160008201805461039d90610a1c565b80601f01602080910402602001604051908101604052809291908181526020018280546103c990610a1c565b80156104165780601f106103eb57610100808354040283529160200191610416565b820191906000526020600020905b8154815290600101906020018083116103f957829003601f168201915b5050505050815260200160018201805461042f90610a1c565b80601f016020809104026020016040519081016040528092919081815260200182805461045b90610a1c565b80156104a85780601f1061047d576101008083540402835291602001916104a8565b820191906000526020600020905b81548152906001019060200180831161048b57829003601f168201915b505050505081526020016002820160009054906101000a900473ffffffffffffffffffffffffffffffffffffffff1673ffffffffffffffffffffffffffffffffffffffff1673ffffffffffffffffffffffffffffffffffffffff16815250508152602001906001019061036a565b50505050905090565b6000604051905090565b600080fd5b600080fd5b6000819050919050565b61054681610533565b811461055157600080fd5b50565b6000813590506105638161053d565b92915050565b60006020828403121561057f5761057e610529565b5b600061058d84828501610554565b91505092915050565b600081519050919050565b600082825260208201905092915050565b60005b838110156105d05780820151818401526020810190506105b5565b60008484015250505050565b6000601f19601f8301169050919050565b60006105f882610596565b61060281856105a1565b93506106128185602086016105b2565b61061b816105dc565b840191505092915050565b600073ffffffffffffffffffffffffffffffffffffffff82169050919050565b600061065182610626565b9050919050565b61066181610646565b82525050565b6000606082019050818103600083015261068181866105ed565b9050818103602083015261069581856105ed565b90506106a46040830184610658565b949350505050565b600080fd5b600080fd5b7f4e487b7100000000000000000000000000000000000000000000000000000000600052604160045260246000fd5b6106ee826105dc565b810181811067ffffffffffffffff8211171561070d5761070c6106b6565b5b80604052505050565b600061072061051f565b905061072c82826106e5565b919050565b600067ffffffffffffffff82111561074c5761074b6106b6565b5b610755826105dc565b9050602081019050919050565b82818337600083830152505050565b600061078461077f84610731565b610716565b9050828152602081018484840111156107a05761079f6106b1565b5b6107ab848285610762565b509392505050565b600082601f8301126107c8576107c76106ac565b5b81356107d8848260208601610771565b91505092915050565b600080604083850312156107f8576107f7610529565b5b600083013567ffffffffffffffff8111156108165761081561052e565b5b610822858286016107b3565b925050602083013567ffffffffffffffff8111156108435761084261052e565b5b61084f858286016107b3565b9150509250929050565b600081519050919050565b600082825260208201905092915050565b6000819050602082019050919050565b600082825260208201905092915050565b60006108a182610596565b6108ab8185610885565b93506108bb8185602086016105b2565b6108c4816105dc565b840191505092915050565b6108d881610646565b82525050565b600060608301600083015184820360008601526108fb8282610896565b915050602083015184820360208601526109158282610896565b915050604083015161092a60408601826108cf565b508091505092915050565b600061094183836108de565b905092915050565b6000602082019050919050565b600061096182610859565b61096b8185610864565b93508360208202850161097d85610875565b8060005b858110156109b9578484038952815161099a8582610935565b94506109a583610949565b925060208a01995050600181019050610981565b50829750879550505050505092915050565b600060208201905081810360008301526109e58184610956565b905092915050565b7f4e487b7100000000000000000000000000000000000000000000000000000000600052602260045260246000fd5b60006002820490506001821680610a3457607f821691505b602082108103610a4757610a466109ed565b5b50919050565b60008190508160005260206000209050919050565b60006020601f8301049050919050565b600082821b905092915050565b600060088302610aaf7fffffffffffffffffffffffffffffffffffffffffffffffffffffffffffffffff82610a72565b610ab98683610a72565b95508019841693508086168417925050509392505050565b6000819050919050565b6000610af6610af1610aec84610533565b610ad1565b610533565b9050919050565b6000819050919050565b610b1083610adb565b610b24610b1c82610afd565b848454610a7f565b825550505050565b600090565b610b39610b2c565b610b44818484610b07565b505050565b5b81811015610b6857610b5d600082610b31565b600181019050610b4a565b5050565b601f821115610bad57610b7e81610a4d565b610b8784610a62565b81016020851015610b96578190505b610baa610ba285610a62565b830182610b49565b50505b505050565b600082821c905092915050565b6000610bd060001984600802610bb2565b1980831691505092915050565b6000610be98383610bbf565b9150826002028217905092915050565b610c0282610596565b67ffffffffffffffff811115610c1b57610c1a6106b6565b5b610c258254610a1c565b610c30828285610b6c565b600060209050601f831160018114610c635760008415610c51578287015190505b610c5b8582610bdd565b865550610cc3565b601f198416610c7186610a4d565b60005b82811015610c9957848901518255600182019150602085019450602081019050610c74565b86831015610cb65784890151610cb2601f891682610bbf565b8355505b6001600288020188555050505b505050505050565b600081905092915050565b6000610ce182610596565b610ceb8185610ccb565b9350610cfb8185602086016105b2565b80840191505092915050565b6000610d138284610cd6565b915081905092915050565b60006040820190508181036000830152610d3881856105ed565b9050610d476020830184610658565b939250505056fea264697066735822122074c801a12fe539796cafd4b9fc22246c678bb37ec26a9e7f0b8e2bbe5db2c7c364736f6c63430008110033e381bbe38293e3828fe3818be383ace382b9e68ea8e5a5a8e381a7e38199efbc81",
  "linkReferences": {},
  "deployedLinkReferences": {}
}